{
  "contractName": "Color",
  "abi": [
    {
      "inputs": [],
      "stateMutability": "nonpayable",
      "type": "constructor"
    },
    {
      "anonymous": false,
      "inputs": [
        {
          "indexed": true,
          "internalType": "address",
          "name": "owner",
          "type": "address"
        },
        {
          "indexed": true,
          "internalType": "address",
          "name": "approved",
          "type": "address"
        },
        {
          "indexed": true,
          "internalType": "uint256",
          "name": "tokenId",
          "type": "uint256"
        }
      ],
      "name": "Approval",
      "type": "event"
    },
    {
      "anonymous": false,
      "inputs": [
        {
          "indexed": true,
          "internalType": "address",
          "name": "owner",
          "type": "address"
        },
        {
          "indexed": true,
          "internalType": "address",
          "name": "operator",
          "type": "address"
        },
        {
          "indexed": false,
          "internalType": "bool",
          "name": "approved",
          "type": "bool"
        }
      ],
      "name": "ApprovalForAll",
      "type": "event"
    },
    {
      "anonymous": false,
      "inputs": [
        {
          "indexed": true,
          "internalType": "address",
          "name": "from",
          "type": "address"
        },
        {
          "indexed": true,
          "internalType": "address",
          "name": "to",
          "type": "address"
        },
        {
          "indexed": true,
          "internalType": "uint256",
          "name": "tokenId",
          "type": "uint256"
        }
      ],
      "name": "Transfer",
      "type": "event"
    },
    {
      "inputs": [
        {
          "internalType": "address",
          "name": "to",
          "type": "address"
        },
        {
          "internalType": "uint256",
          "name": "tokenId",
          "type": "uint256"
        }
      ],
      "name": "approve",
      "outputs": [],
      "stateMutability": "nonpayable",
      "type": "function"
    },
    {
      "inputs": [
        {
          "internalType": "address",
          "name": "owner",
          "type": "address"
        }
      ],
      "name": "balanceOf",
      "outputs": [
        {
          "internalType": "uint256",
          "name": "",
          "type": "uint256"
        }
      ],
      "stateMutability": "view",
      "type": "function",
      "constant": true
    },
    {
      "inputs": [
        {
          "internalType": "uint256",
          "name": "",
          "type": "uint256"
        }
      ],
      "name": "colors",
      "outputs": [
        {
          "internalType": "string",
          "name": "",
          "type": "string"
        }
      ],
      "stateMutability": "view",
      "type": "function",
      "constant": true
    },
    {
      "inputs": [
        {
          "internalType": "uint256",
          "name": "tokenId",
          "type": "uint256"
        }
      ],
      "name": "getApproved",
      "outputs": [
        {
          "internalType": "address",
          "name": "",
          "type": "address"
        }
      ],
      "stateMutability": "view",
      "type": "function",
      "constant": true
    },
    {
      "inputs": [
        {
          "internalType": "address",
          "name": "owner",
          "type": "address"
        },
        {
          "internalType": "address",
          "name": "operator",
          "type": "address"
        }
      ],
      "name": "isApprovedForAll",
      "outputs": [
        {
          "internalType": "bool",
          "name": "",
          "type": "bool"
        }
      ],
      "stateMutability": "view",
      "type": "function",
      "constant": true
    },
    {
      "inputs": [],
      "name": "name",
      "outputs": [
        {
          "internalType": "string",
          "name": "",
          "type": "string"
        }
      ],
      "stateMutability": "view",
      "type": "function",
      "constant": true
    },
    {
      "inputs": [
        {
          "internalType": "uint256",
          "name": "tokenId",
          "type": "uint256"
        }
      ],
      "name": "ownerOf",
      "outputs": [
        {
          "internalType": "address",
          "name": "",
          "type": "address"
        }
      ],
      "stateMutability": "view",
      "type": "function",
      "constant": true
    },
    {
      "inputs": [
        {
          "internalType": "address",
          "name": "from",
          "type": "address"
        },
        {
          "internalType": "address",
          "name": "to",
          "type": "address"
        },
        {
          "internalType": "uint256",
          "name": "tokenId",
          "type": "uint256"
        }
      ],
      "name": "safeTransferFrom",
      "outputs": [],
      "stateMutability": "nonpayable",
      "type": "function"
    },
    {
      "inputs": [
        {
          "internalType": "address",
          "name": "from",
          "type": "address"
        },
        {
          "internalType": "address",
          "name": "to",
          "type": "address"
        },
        {
          "internalType": "uint256",
          "name": "tokenId",
          "type": "uint256"
        },
        {
          "internalType": "bytes",
          "name": "_data",
          "type": "bytes"
        }
      ],
      "name": "safeTransferFrom",
      "outputs": [],
      "stateMutability": "nonpayable",
      "type": "function"
    },
    {
      "inputs": [
        {
          "internalType": "address",
          "name": "operator",
          "type": "address"
        },
        {
          "internalType": "bool",
          "name": "approved",
          "type": "bool"
        }
      ],
      "name": "setApprovalForAll",
      "outputs": [],
      "stateMutability": "nonpayable",
      "type": "function"
    },
    {
      "inputs": [
        {
          "internalType": "bytes4",
          "name": "interfaceId",
          "type": "bytes4"
        }
      ],
      "name": "supportsInterface",
      "outputs": [
        {
          "internalType": "bool",
          "name": "",
          "type": "bool"
        }
      ],
      "stateMutability": "view",
      "type": "function",
      "constant": true
    },
    {
      "inputs": [],
      "name": "symbol",
      "outputs": [
        {
          "internalType": "string",
          "name": "",
          "type": "string"
        }
      ],
      "stateMutability": "view",
      "type": "function",
      "constant": true
    },
    {
      "inputs": [
        {
          "internalType": "uint256",
          "name": "index",
          "type": "uint256"
        }
      ],
      "name": "tokenByIndex",
      "outputs": [
        {
          "internalType": "uint256",
          "name": "",
          "type": "uint256"
        }
      ],
      "stateMutability": "view",
      "type": "function",
      "constant": true
    },
    {
      "inputs": [
        {
          "internalType": "address",
          "name": "owner",
          "type": "address"
        },
        {
          "internalType": "uint256",
          "name": "index",
          "type": "uint256"
        }
      ],
      "name": "tokenOfOwnerByIndex",
      "outputs": [
        {
          "internalType": "uint256",
          "name": "",
          "type": "uint256"
        }
      ],
      "stateMutability": "view",
      "type": "function",
      "constant": true
    },
    {
      "inputs": [
        {
          "internalType": "uint256",
          "name": "tokenId",
          "type": "uint256"
        }
      ],
      "name": "tokenURI",
      "outputs": [
        {
          "internalType": "string",
          "name": "",
          "type": "string"
        }
      ],
      "stateMutability": "view",
      "type": "function",
      "constant": true
    },
    {
      "inputs": [],
      "name": "totalSupply",
      "outputs": [
        {
          "internalType": "uint256",
          "name": "",
          "type": "uint256"
        }
      ],
      "stateMutability": "view",
      "type": "function",
      "constant": true
    },
    {
      "inputs": [
        {
          "internalType": "address",
          "name": "from",
          "type": "address"
        },
        {
          "internalType": "address",
          "name": "to",
          "type": "address"
        },
        {
          "internalType": "uint256",
          "name": "tokenId",
          "type": "uint256"
        }
      ],
      "name": "transferFrom",
      "outputs": [],
      "stateMutability": "nonpayable",
      "type": "function"
    },
    {
      "inputs": [
        {
          "internalType": "string",
          "name": "_color",
          "type": "string"
        }
      ],
      "name": "mint",
      "outputs": [],
      "stateMutability": "nonpayable",
      "type": "function"
    },
    {
      "inputs": [
        {
          "internalType": "string",
          "name": "_color1",
          "type": "string"
        },
        {
          "internalType": "string",
          "name": "_color2",
          "type": "string"
        }
      ],
      "name": "breed",
      "outputs": [],
      "stateMutability": "nonpayable",
      "type": "function"
    }
  ],
  "bytecode": "0x6080604052603c600a553480156200001657600080fd5b506040518060400160405280600581526020017f436f6c6f720000000000000000000000000000000000000000000000000000008152506040518060400160405280600581526020017f434f4c4f5200000000000000000000000000000000000000000000000000000081525081600090805190602001906200009b929190620000bd565b508060019080519060200190620000b4929190620000bd565b505050620001d2565b828054620000cb906200016d565b90600052602060002090601f016020900481019282620000ef57600085556200013b565b82601f106200010a57805160ff19168380011785556200013b565b828001600101855582156200013b579182015b828111156200013a5782518255916020019190600101906200011d565b5b5090506200014a91906200014e565b5090565b5b80821115620001695760008160009055506001016200014f565b5090565b600060028204905060018216806200018657607f821691505b602082108114156200019d576200019c620001a3565b5b50919050565b7f4e487b7100000000000000000000000000000000000000000000000000000000600052602260045260246000fd5b61324180620001e26000396000f3fe608060405234801561001057600080fd5b50600436106101215760003560e01c80634f6ccce7116100ad578063b88d4fde11610071578063b88d4fde1461032c578063bd11f69d14610348578063c87b56dd14610378578063d85d3d27146103a8578063e985e9c5146103c457610121565b80634f6ccce7146102625780636352211e1461029257806370a08231146102c257806395d89b41146102f2578063a22cb4651461031057610121565b806318160ddd116100f457806318160ddd146101c057806323b872dd146101de5780632e6fb8e2146101fa5780632f745c591461021657806342842e0e1461024657610121565b806301ffc9a71461012657806306fdde0314610156578063081812fc14610174578063095ea7b3146101a4575b600080fd5b610140600480360381019061013b9190612198565b6103f4565b60405161014d9190612682565b60405180910390f35b61015e61046e565b60405161016b919061269d565b60405180910390f35b61018e600480360381019061018991906122b3565b610500565b60405161019b919061261b565b60405180910390f35b6101be60048036038101906101b99190612158565b610585565b005b6101c861069d565b6040516101d591906128bf565b60405180910390f35b6101f860048036038101906101f39190612042565b6106aa565b005b610214600480360381019061020f919061223b565b61070a565b005b610230600480360381019061022b9190612158565b61070e565b60405161023d91906128bf565b60405180910390f35b610260600480360381019061025b9190612042565b6107b3565b005b61027c600480360381019061027791906122b3565b6107d3565b60405161028991906128bf565b60405180910390f35b6102ac60048036038101906102a791906122b3565b610844565b6040516102b9919061261b565b60405180910390f35b6102dc60048036038101906102d79190611fd5565b6108f6565b6040516102e991906128bf565b60405180910390f35b6102fa6109ae565b604051610307919061269d565b60405180910390f35b61032a60048036038101906103259190612118565b610a40565b005b61034660048036038101906103419190612095565b610bc1565b005b610362600480360381019061035d91906122b3565b610c23565b60405161036f919061269d565b60405180910390f35b610392600480360381019061038d91906122b3565b610ccf565b60405161039f919061269d565b60405180910390f35b6103c260048036038101906103bd91906121f2565b610d76565b005b6103de60048036038101906103d99190612002565b610e37565b6040516103eb9190612682565b60405180910390f35b60007f780e9d63000000000000000000000000000000000000000000000000000000007bffffffffffffffffffffffffffffffffffffffffffffffffffffffff1916827bffffffffffffffffffffffffffffffffffffffffffffffffffffffff19161480610467575061046682610ecb565b5b9050919050565b60606000805461047d90612b15565b80601f01602080910402602001604051908101604052809291908181526020018280546104a990612b15565b80156104f65780601f106104cb576101008083540402835291602001916104f6565b820191906000526020600020905b8154815290600101906020018083116104d957829003601f168201915b5050505050905090565b600061050b82610fad565b61054a576040517f08c379a0000000000000000000000000000000000000000000000000000000008152600401610541906127ff565b60405180910390fd5b6004600083815260200190815260200160002060009054906101000a900473ffffffffffffffffffffffffffffffffffffffff169050919050565b600061059082610844565b90508073ffffffffffffffffffffffffffffffffffffffff168373ffffffffffffffffffffffffffffffffffffffff161415610601576040517f08c379a00000000000000000000000000000000000000000000000000000000081526004016105f89061285f565b60405180910390fd5b8073ffffffffffffffffffffffffffffffffffffffff16610620611019565b73ffffffffffffffffffffffffffffffffffffffff16148061064f575061064e81610649611019565b610e37565b5b61068e576040517f08c379a00000000000000000000000000000000000000000000000000000000081526004016106859061277f565b60405180910390fd5b6106988383611021565b505050565b6000600880549050905090565b6106bb6106b5611019565b826110da565b6106fa576040517f08c379a00000000000000000000000000000000000000000000000000000000081526004016106f19061287f565b60405180910390fd5b6107058383836111b8565b505050565b5050565b6000610719836108f6565b821061075a576040517f08c379a0000000000000000000000000000000000000000000000000000000008152600401610751906126bf565b60405180910390fd5b600660008473ffffffffffffffffffffffffffffffffffffffff1673ffffffffffffffffffffffffffffffffffffffff168152602001908152602001600020600083815260200190815260200160002054905092915050565b6107ce83838360405180602001604052806000815250610bc1565b505050565b60006107dd61069d565b821061081e576040517f08c379a00000000000000000000000000000000000000000000000000000000081526004016108159061289f565b60405180910390fd5b6008828154811061083257610831612cae565b5b90600052602060002001549050919050565b6000806002600084815260200190815260200160002060009054906101000a900473ffffffffffffffffffffffffffffffffffffffff169050600073ffffffffffffffffffffffffffffffffffffffff168173ffffffffffffffffffffffffffffffffffffffff1614156108ed576040517f08c379a00000000000000000000000000000000000000000000000000000000081526004016108e4906127bf565b60405180910390fd5b80915050919050565b60008073ffffffffffffffffffffffffffffffffffffffff168273ffffffffffffffffffffffffffffffffffffffff161415610967576040517f08c379a000000000000000000000000000000000000000000000000000000000815260040161095e9061279f565b60405180910390fd5b600360008373ffffffffffffffffffffffffffffffffffffffff1673ffffffffffffffffffffffffffffffffffffffff168152602001908152602001600020549050919050565b6060600180546109bd90612b15565b80601f01602080910402602001604051908101604052809291908181526020018280546109e990612b15565b8015610a365780601f10610a0b57610100808354040283529160200191610a36565b820191906000526020600020905b815481529060010190602001808311610a1957829003601f168201915b5050505050905090565b610a48611019565b73ffffffffffffffffffffffffffffffffffffffff168273ffffffffffffffffffffffffffffffffffffffff161415610ab6576040517f08c379a0000000000000000000000000000000000000000000000000000000008152600401610aad9061273f565b60405180910390fd5b8060056000610ac3611019565b73ffffffffffffffffffffffffffffffffffffffff1673ffffffffffffffffffffffffffffffffffffffff16815260200190815260200160002060008473ffffffffffffffffffffffffffffffffffffffff1673ffffffffffffffffffffffffffffffffffffffff16815260200190815260200160002060006101000a81548160ff0219169083151502179055508173ffffffffffffffffffffffffffffffffffffffff16610b70611019565b73ffffffffffffffffffffffffffffffffffffffff167f17307eab39ab6107e8899845ad3d59bd9653f200f220920489ca2b5937696c3183604051610bb59190612682565b60405180910390a35050565b610bd2610bcc611019565b836110da565b610c11576040517f08c379a0000000000000000000000000000000000000000000000000000000008152600401610c089061287f565b60405180910390fd5b610c1d84848484611414565b50505050565b600b8181548110610c3357600080fd5b906000526020600020016000915090508054610c4e90612b15565b80601f0160208091040260200160405190810160405280929190818152602001828054610c7a90612b15565b8015610cc75780601f10610c9c57610100808354040283529160200191610cc7565b820191906000526020600020905b815481529060010190602001808311610caa57829003601f168201915b505050505081565b6060610cda82610fad565b610d19576040517f08c379a0000000000000000000000000000000000000000000000000000000008152600401610d109061283f565b60405180910390fd5b6000610d23611470565b90506000815111610d435760405180602001604052806000815250610d6e565b80610d4d84611487565b604051602001610d5e9291906125f7565b6040516020818303038152906040525b915050919050565b600c81604051610d8691906125e0565b908152602001604051809103902060009054906101000a900460ff1615610dac57600080fd5b600b81908060018154018082558091505060019003906000526020600020016000909190919091509080519060200190610de7929190611de9565b506000600b805490509050610dfc33826115e8565b6001600c83604051610e0e91906125e0565b908152602001604051809103902060006101000a81548160ff0219169083151502179055505050565b6000600560008473ffffffffffffffffffffffffffffffffffffffff1673ffffffffffffffffffffffffffffffffffffffff16815260200190815260200160002060008373ffffffffffffffffffffffffffffffffffffffff1673ffffffffffffffffffffffffffffffffffffffff16815260200190815260200160002060009054906101000a900460ff16905092915050565b60007f80ac58cd000000000000000000000000000000000000000000000000000000007bffffffffffffffffffffffffffffffffffffffffffffffffffffffff1916827bffffffffffffffffffffffffffffffffffffffffffffffffffffffff19161480610f9657507f5b5e139f000000000000000000000000000000000000000000000000000000007bffffffffffffffffffffffffffffffffffffffffffffffffffffffff1916827bffffffffffffffffffffffffffffffffffffffffffffffffffffffff1916145b80610fa65750610fa5826117b6565b5b9050919050565b60008073ffffffffffffffffffffffffffffffffffffffff166002600084815260200190815260200160002060009054906101000a900473ffffffffffffffffffffffffffffffffffffffff1673ffffffffffffffffffffffffffffffffffffffff1614159050919050565b600033905090565b816004600083815260200190815260200160002060006101000a81548173ffffffffffffffffffffffffffffffffffffffff021916908373ffffffffffffffffffffffffffffffffffffffff160217905550808273ffffffffffffffffffffffffffffffffffffffff1661109483610844565b73ffffffffffffffffffffffffffffffffffffffff167f8c5be1e5ebec7d5bd14f71427d1e84f3dd0314c0f7b2291e5b200ac8c7c3b92560405160405180910390a45050565b60006110e582610fad565b611124576040517f08c379a000000000000000000000000000000000000000000000000000000000815260040161111b9061275f565b60405180910390fd5b600061112f83610844565b90508073ffffffffffffffffffffffffffffffffffffffff168473ffffffffffffffffffffffffffffffffffffffff16148061119e57508373ffffffffffffffffffffffffffffffffffffffff1661118684610500565b73ffffffffffffffffffffffffffffffffffffffff16145b806111af57506111ae8185610e37565b5b91505092915050565b8273ffffffffffffffffffffffffffffffffffffffff166111d882610844565b73ffffffffffffffffffffffffffffffffffffffff161461122e576040517f08c379a00000000000000000000000000000000000000000000000000000000081526004016112259061281f565b60405180910390fd5b600073ffffffffffffffffffffffffffffffffffffffff168273ffffffffffffffffffffffffffffffffffffffff16141561129e576040517f08c379a00000000000000000000000000000000000000000000000000000000081526004016112959061271f565b60405180910390fd5b6112a9838383611820565b6112b4600082611021565b6001600360008573ffffffffffffffffffffffffffffffffffffffff1673ffffffffffffffffffffffffffffffffffffffff16815260200190815260200160002060008282546113049190612a2b565b925050819055506001600360008473ffffffffffffffffffffffffffffffffffffffff1673ffffffffffffffffffffffffffffffffffffffff168152602001908152602001600020600082825461135b91906129a4565b92505081905550816002600083815260200190815260200160002060006101000a81548173ffffffffffffffffffffffffffffffffffffffff021916908373ffffffffffffffffffffffffffffffffffffffff160217905550808273ffffffffffffffffffffffffffffffffffffffff168473ffffffffffffffffffffffffffffffffffffffff167fddf252ad1be2c89b69c2b068fc378daa952ba7f163c4a11628f55a4df523b3ef60405160405180910390a4505050565b61141f8484846111b8565b61142b84848484611934565b61146a576040517f08c379a0000000000000000000000000000000000000000000000000000000008152600401611461906126df565b60405180910390fd5b50505050565b606060405180602001604052806000815250905090565b606060008214156114cf576040518060400160405280600181526020017f300000000000000000000000000000000000000000000000000000000000000081525090506115e3565b600082905060005b600082146115015780806114ea90612b78565b915050600a826114fa91906129fa565b91506114d7565b60008167ffffffffffffffff81111561151d5761151c612cdd565b5b6040519080825280601f01601f19166020018201604052801561154f5781602001600182028036833780820191505090505b5090505b600085146115dc576001826115689190612a2b565b9150600a856115779190612bc1565b603061158391906129a4565b60f81b81838151811061159957611598612cae565b5b60200101907effffffffffffffffffffffffffffffffffffffffffffffffffffffffffffff1916908160001a905350600a856115d591906129fa565b9450611553565b8093505050505b919050565b600073ffffffffffffffffffffffffffffffffffffffff168273ffffffffffffffffffffffffffffffffffffffff161415611658576040517f08c379a000000000000000000000000000000000000000000000000000000000815260040161164f906127df565b60405180910390fd5b61166181610fad565b156116a1576040517f08c379a0000000000000000000000000000000000000000000000000000000008152600401611698906126ff565b60405180910390fd5b6116ad60008383611820565b6001600360008473ffffffffffffffffffffffffffffffffffffffff1673ffffffffffffffffffffffffffffffffffffffff16815260200190815260200160002060008282546116fd91906129a4565b92505081905550816002600083815260200190815260200160002060006101000a81548173ffffffffffffffffffffffffffffffffffffffff021916908373ffffffffffffffffffffffffffffffffffffffff160217905550808273ffffffffffffffffffffffffffffffffffffffff16600073ffffffffffffffffffffffffffffffffffffffff167fddf252ad1be2c89b69c2b068fc378daa952ba7f163c4a11628f55a4df523b3ef60405160405180910390a45050565b60007f01ffc9a7000000000000000000000000000000000000000000000000000000007bffffffffffffffffffffffffffffffffffffffffffffffffffffffff1916827bffffffffffffffffffffffffffffffffffffffffffffffffffffffff1916149050919050565b61182b838383611acb565b600073ffffffffffffffffffffffffffffffffffffffff168373ffffffffffffffffffffffffffffffffffffffff16141561186e5761186981611ad0565b6118ad565b8173ffffffffffffffffffffffffffffffffffffffff168373ffffffffffffffffffffffffffffffffffffffff16146118ac576118ab8382611b19565b5b5b600073ffffffffffffffffffffffffffffffffffffffff168273ffffffffffffffffffffffffffffffffffffffff1614156118f0576118eb81611c86565b61192f565b8273ffffffffffffffffffffffffffffffffffffffff168273ffffffffffffffffffffffffffffffffffffffff161461192e5761192d8282611d57565b5b5b505050565b60006119558473ffffffffffffffffffffffffffffffffffffffff16611dd6565b15611abe578373ffffffffffffffffffffffffffffffffffffffff1663150b7a0261197e611019565b8786866040518563ffffffff1660e01b81526004016119a09493929190612636565b602060405180830381600087803b1580156119ba57600080fd5b505af19250505080156119eb57506040513d601f19601f820116820180604052508101906119e891906121c5565b60015b611a6e573d8060008114611a1b576040519150601f19603f3d011682016040523d82523d6000602084013e611a20565b606091505b50600081511415611a66576040517f08c379a0000000000000000000000000000000000000000000000000000000008152600401611a5d906126df565b60405180910390fd5b805181602001fd5b63150b7a0260e01b7bffffffffffffffffffffffffffffffffffffffffffffffffffffffff1916817bffffffffffffffffffffffffffffffffffffffffffffffffffffffff191614915050611ac3565b600190505b949350505050565b505050565b6008805490506009600083815260200190815260200160002081905550600881908060018154018082558091505060019003906000526020600020016000909190919091505550565b60006001611b26846108f6565b611b309190612a2b565b9050600060076000848152602001908152602001600020549050818114611c15576000600660008673ffffffffffffffffffffffffffffffffffffffff1673ffffffffffffffffffffffffffffffffffffffff168152602001908152602001600020600084815260200190815260200160002054905080600660008773ffffffffffffffffffffffffffffffffffffffff1673ffffffffffffffffffffffffffffffffffffffff168152602001908152602001600020600084815260200190815260200160002081905550816007600083815260200190815260200160002081905550505b6007600084815260200190815260200160002060009055600660008573ffffffffffffffffffffffffffffffffffffffff1673ffffffffffffffffffffffffffffffffffffffff16815260200190815260200160002060008381526020019081526020016000206000905550505050565b60006001600880549050611c9a9190612a2b565b9050600060096000848152602001908152602001600020549050600060088381548110611cca57611cc9612cae565b5b906000526020600020015490508060088381548110611cec57611ceb612cae565b5b906000526020600020018190555081600960008381526020019081526020016000208190555060096000858152602001908152602001600020600090556008805480611d3b57611d3a612c7f565b5b6001900381819060005260206000200160009055905550505050565b6000611d62836108f6565b905081600660008573ffffffffffffffffffffffffffffffffffffffff1673ffffffffffffffffffffffffffffffffffffffff168152602001908152602001600020600083815260200190815260200160002081905550806007600084815260200190815260200160002081905550505050565b600080823b905060008111915050919050565b828054611df590612b15565b90600052602060002090601f016020900481019282611e175760008555611e5e565b82601f10611e3057805160ff1916838001178555611e5e565b82800160010185558215611e5e579182015b82811115611e5d578251825591602001919060010190611e42565b5b509050611e6b9190611e6f565b5090565b5b80821115611e88576000816000905550600101611e70565b5090565b6000611e9f611e9a846128ff565b6128da565b905082815260208101848484011115611ebb57611eba612d11565b5b611ec6848285612ad3565b509392505050565b6000611ee1611edc84612930565b6128da565b905082815260208101848484011115611efd57611efc612d11565b5b611f08848285612ad3565b509392505050565b600081359050611f1f816131af565b92915050565b600081359050611f34816131c6565b92915050565b600081359050611f49816131dd565b92915050565b600081519050611f5e816131dd565b92915050565b600082601f830112611f7957611f78612d0c565b5b8135611f89848260208601611e8c565b91505092915050565b600082601f830112611fa757611fa6612d0c565b5b8135611fb7848260208601611ece565b91505092915050565b600081359050611fcf816131f4565b92915050565b600060208284031215611feb57611fea612d1b565b5b6000611ff984828501611f10565b91505092915050565b6000806040838503121561201957612018612d1b565b5b600061202785828601611f10565b925050602061203885828601611f10565b9150509250929050565b60008060006060848603121561205b5761205a612d1b565b5b600061206986828701611f10565b935050602061207a86828701611f10565b925050604061208b86828701611fc0565b9150509250925092565b600080600080608085870312156120af576120ae612d1b565b5b60006120bd87828801611f10565b94505060206120ce87828801611f10565b93505060406120df87828801611fc0565b925050606085013567ffffffffffffffff811115612100576120ff612d16565b5b61210c87828801611f64565b91505092959194509250565b6000806040838503121561212f5761212e612d1b565b5b600061213d85828601611f10565b925050602061214e85828601611f25565b9150509250929050565b6000806040838503121561216f5761216e612d1b565b5b600061217d85828601611f10565b925050602061218e85828601611fc0565b9150509250929050565b6000602082840312156121ae576121ad612d1b565b5b60006121bc84828501611f3a565b91505092915050565b6000602082840312156121db576121da612d1b565b5b60006121e984828501611f4f565b91505092915050565b60006020828403121561220857612207612d1b565b5b600082013567ffffffffffffffff81111561222657612225612d16565b5b61223284828501611f92565b91505092915050565b6000806040838503121561225257612251612d1b565b5b600083013567ffffffffffffffff8111156122705761226f612d16565b5b61227c85828601611f92565b925050602083013567ffffffffffffffff81111561229d5761229c612d16565b5b6122a985828601611f92565b9150509250929050565b6000602082840312156122c9576122c8612d1b565b5b60006122d784828501611fc0565b91505092915050565b6122e981612a5f565b82525050565b6122f881612a71565b82525050565b600061230982612961565b6123138185612977565b9350612323818560208601612ae2565b61232c81612d20565b840191505092915050565b60006123428261296c565b61234c8185612988565b935061235c818560208601612ae2565b61236581612d20565b840191505092915050565b600061237b8261296c565b6123858185612999565b9350612395818560208601612ae2565b80840191505092915050565b60006123ae602b83612988565b91506123b982612d31565b604082019050919050565b60006123d1603283612988565b91506123dc82612d80565b604082019050919050565b60006123f4601c83612988565b91506123ff82612dcf565b602082019050919050565b6000612417602483612988565b915061242282612df8565b604082019050919050565b600061243a601983612988565b915061244582612e47565b602082019050919050565b600061245d602c83612988565b915061246882612e70565b604082019050919050565b6000612480603883612988565b915061248b82612ebf565b604082019050919050565b60006124a3602a83612988565b91506124ae82612f0e565b604082019050919050565b60006124c6602983612988565b91506124d182612f5d565b604082019050919050565b60006124e9602083612988565b91506124f482612fac565b602082019050919050565b600061250c602c83612988565b915061251782612fd5565b604082019050919050565b600061252f602983612988565b915061253a82613024565b604082019050919050565b6000612552602f83612988565b915061255d82613073565b604082019050919050565b6000612575602183612988565b9150612580826130c2565b604082019050919050565b6000612598603183612988565b91506125a382613111565b604082019050919050565b60006125bb602c83612988565b91506125c682613160565b604082019050919050565b6125da81612ac9565b82525050565b60006125ec8284612370565b915081905092915050565b60006126038285612370565b915061260f8284612370565b91508190509392505050565b600060208201905061263060008301846122e0565b92915050565b600060808201905061264b60008301876122e0565b61265860208301866122e0565b61266560408301856125d1565b818103606083015261267781846122fe565b905095945050505050565b600060208201905061269760008301846122ef565b92915050565b600060208201905081810360008301526126b78184612337565b905092915050565b600060208201905081810360008301526126d8816123a1565b9050919050565b600060208201905081810360008301526126f8816123c4565b9050919050565b60006020820190508181036000830152612718816123e7565b9050919050565b600060208201905081810360008301526127388161240a565b9050919050565b600060208201905081810360008301526127588161242d565b9050919050565b6000602082019050818103600083015261277881612450565b9050919050565b6000602082019050818103600083015261279881612473565b9050919050565b600060208201905081810360008301526127b881612496565b9050919050565b600060208201905081810360008301526127d8816124b9565b9050919050565b600060208201905081810360008301526127f8816124dc565b9050919050565b60006020820190508181036000830152612818816124ff565b9050919050565b6000602082019050818103600083015261283881612522565b9050919050565b6000602082019050818103600083015261285881612545565b9050919050565b6000602082019050818103600083015261287881612568565b9050919050565b600060208201905081810360008301526128988161258b565b9050919050565b600060208201905081810360008301526128b8816125ae565b9050919050565b60006020820190506128d460008301846125d1565b92915050565b60006128e46128f5565b90506128f08282612b47565b919050565b6000604051905090565b600067ffffffffffffffff82111561291a57612919612cdd565b5b61292382612d20565b9050602081019050919050565b600067ffffffffffffffff82111561294b5761294a612cdd565b5b61295482612d20565b9050602081019050919050565b600081519050919050565b600081519050919050565b600082825260208201905092915050565b600082825260208201905092915050565b600081905092915050565b60006129af82612ac9565b91506129ba83612ac9565b9250827fffffffffffffffffffffffffffffffffffffffffffffffffffffffffffffffff038211156129ef576129ee612bf2565b5b828201905092915050565b6000612a0582612ac9565b9150612a1083612ac9565b925082612a2057612a1f612c21565b5b828204905092915050565b6000612a3682612ac9565b9150612a4183612ac9565b925082821015612a5457612a53612bf2565b5b828203905092915050565b6000612a6a82612aa9565b9050919050565b60008115159050919050565b60007fffffffff0000000000000000000000000000000000000000000000000000000082169050919050565b600073ffffffffffffffffffffffffffffffffffffffff82169050919050565b6000819050919050565b82818337600083830152505050565b60005b83811015612b00578082015181840152602081019050612ae5565b83811115612b0f576000848401525b50505050565b60006002820490506001821680612b2d57607f821691505b60208210811415612b4157612b40612c50565b5b50919050565b612b5082612d20565b810181811067ffffffffffffffff82111715612b6f57612b6e612cdd565b5b80604052505050565b6000612b8382612ac9565b91507fffffffffffffffffffffffffffffffffffffffffffffffffffffffffffffffff821415612bb657612bb5612bf2565b5b600182019050919050565b6000612bcc82612ac9565b9150612bd783612ac9565b925082612be757612be6612c21565b5b828206905092915050565b7f4e487b7100000000000000000000000000000000000000000000000000000000600052601160045260246000fd5b7f4e487b7100000000000000000000000000000000000000000000000000000000600052601260045260246000fd5b7f4e487b7100000000000000000000000000000000000000000000000000000000600052602260045260246000fd5b7f4e487b7100000000000000000000000000000000000000000000000000000000600052603160045260246000fd5b7f4e487b7100000000000000000000000000000000000000000000000000000000600052603260045260246000fd5b7f4e487b7100000000000000000000000000000000000000000000000000000000600052604160045260246000fd5b600080fd5b600080fd5b600080fd5b600080fd5b6000601f19601f8301169050919050565b7f455243373231456e756d657261626c653a206f776e657220696e646578206f7560008201527f74206f6620626f756e6473000000000000000000000000000000000000000000602082015250565b7f4552433732313a207472616e7366657220746f206e6f6e20455243373231526560008201527f63656976657220696d706c656d656e7465720000000000000000000000000000602082015250565b7f4552433732313a20746f6b656e20616c7265616479206d696e74656400000000600082015250565b7f4552433732313a207472616e7366657220746f20746865207a65726f2061646460008201527f7265737300000000000000000000000000000000000000000000000000000000602082015250565b7f4552433732313a20617070726f766520746f2063616c6c657200000000000000600082015250565b7f4552433732313a206f70657261746f7220717565727920666f72206e6f6e657860008201527f697374656e7420746f6b656e0000000000000000000000000000000000000000602082015250565b7f4552433732313a20617070726f76652063616c6c6572206973206e6f74206f7760008201527f6e6572206e6f7220617070726f76656420666f7220616c6c0000000000000000602082015250565b7f4552433732313a2062616c616e636520717565727920666f7220746865207a6560008201527f726f206164647265737300000000000000000000000000000000000000000000602082015250565b7f4552433732313a206f776e657220717565727920666f72206e6f6e657869737460008201527f656e7420746f6b656e0000000000000000000000000000000000000000000000602082015250565b7f4552433732313a206d696e7420746f20746865207a65726f2061646472657373600082015250565b7f4552433732313a20617070726f76656420717565727920666f72206e6f6e657860008201527f697374656e7420746f6b656e0000000000000000000000000000000000000000602082015250565b7f4552433732313a207472616e73666572206f6620746f6b656e2074686174206960008201527f73206e6f74206f776e0000000000000000000000000000000000000000000000602082015250565b7f4552433732314d657461646174613a2055524920717565727920666f72206e6f60008201527f6e6578697374656e7420746f6b656e0000000000000000000000000000000000602082015250565b7f4552433732313a20617070726f76616c20746f2063757272656e74206f776e6560008201527f7200000000000000000000000000000000000000000000000000000000000000602082015250565b7f4552433732313a207472616e736665722063616c6c6572206973206e6f74206f60008201527f776e6572206e6f7220617070726f766564000000000000000000000000000000602082015250565b7f455243373231456e756d657261626c653a20676c6f62616c20696e646578206f60008201527f7574206f6620626f756e64730000000000000000000000000000000000000000602082015250565b6131b881612a5f565b81146131c357600080fd5b50565b6131cf81612a71565b81146131da57600080fd5b50565b6131e681612a7d565b81146131f157600080fd5b50565b6131fd81612ac9565b811461320857600080fd5b5056fea264697066735822122007a215b2ae1a69a4c85ddc66c6b71877d2e0469f8802fbb024fde1c17a0a741b64736f6c63430008060033",
  "immutableReferences": {},
  "source": "// SPDX-License-Identifier: MIT\r\npragma solidity >=0.4.22 <0.9.0;\r\n\r\nimport \"@openzeppelin/contracts/token/ERC721/extensions/ERC721Enumerable.sol\";\r\nimport \"@openzeppelin/contracts/token/ERC721/ERC721.sol\";\r\n\r\ncontract Color is  ERC721Enumerable {\r\n    uint dnaModulus = 10 * 6;\r\n    string[] public colors;\r\n    mapping(string => bool) _colorExists;\r\n\r\n    constructor() ERC721(\"Color\", \"COLOR\") {\r\n    }\r\n    \r\n    function mint(string memory _color) public {\r\n        require(!_colorExists[_color]);\r\n        colors.push(_color);\r\n        uint _id = colors.length;\r\n        _mint(msg.sender, _id);\r\n        _colorExists[_color] = true;\r\n    }\r\n\r\n    function breed (string memory _color1, string memory _color2) public {\r\n\r\n    }\r\n}",
  "sourcePath": "C:/Users/Antonio Neto/Desktop/nft 3/src/contracts/Color.sol",
  "compiler": {
    "name": "solc",
    "version": "0.8.6+commit.11564f7e.Emscripten.clang"
  },
  "schemaVersion": "3.4.1",
  "updatedAt": "2021-07-20T00:22:17.759Z",
  "networkType": "ethereum",
  "devdoc": {
    "kind": "dev",
    "methods": {
      "approve(address,uint256)": {
        "details": "See {IERC721-approve}."
      },
      "balanceOf(address)": {
        "details": "See {IERC721-balanceOf}."
      },
      "getApproved(uint256)": {
        "details": "See {IERC721-getApproved}."
      },
      "isApprovedForAll(address,address)": {
        "details": "See {IERC721-isApprovedForAll}."
      },
      "name()": {
        "details": "See {IERC721Metadata-name}."
      },
      "ownerOf(uint256)": {
        "details": "See {IERC721-ownerOf}."
      },
      "safeTransferFrom(address,address,uint256)": {
        "details": "See {IERC721-safeTransferFrom}."
      },
      "safeTransferFrom(address,address,uint256,bytes)": {
        "details": "See {IERC721-safeTransferFrom}."
      },
      "setApprovalForAll(address,bool)": {
        "details": "See {IERC721-setApprovalForAll}."
      },
      "supportsInterface(bytes4)": {
        "details": "See {IERC165-supportsInterface}."
      },
      "symbol()": {
        "details": "See {IERC721Metadata-symbol}."
      },
      "tokenByIndex(uint256)": {
        "details": "See {IERC721Enumerable-tokenByIndex}."
      },
      "tokenOfOwnerByIndex(address,uint256)": {
        "details": "See {IERC721Enumerable-tokenOfOwnerByIndex}."
      },
      "tokenURI(uint256)": {
        "details": "See {IERC721Metadata-tokenURI}."
      },
      "totalSupply()": {
        "details": "See {IERC721Enumerable-totalSupply}."
      },
      "transferFrom(address,address,uint256)": {
        "details": "See {IERC721-transferFrom}."
      }
    },
    "version": 1
  },
  "userdoc": {
    "kind": "user",
    "methods": {},
    "version": 1
  }
}